:100000000C9442000C946A000C946A000C946A00F0
:100010000C946A000C946A000C946A000C946A00B8
:100020000C946A000C9471070C949A070C94C30703
:100030000C9467080C94EC070C9415080C943E087B
:100040000C94F6060C941F070C9448070C946A0055
:100050000C94E4040C9497020C946A000C946A00CB
:100060000C946A000C946A000C946A000C946A0068
:100070000C94B9040C94E5020C946A0057010F0526
:10008000A309690111241FBECFEFD0E1DEBFCDBFB0
:1000900011E0A0E0B1E0E0E2FAE102C005900D92CB
:1000A000A634B107D9F712E0A6E4B1E001C01D9271
:1000B000A039B107E1F710E0C2E8D0E004C0229710
:1000C000FE010E94FD09CC37D107C9F70E94DE016D
:1000D0000C94030D0C940000EF920F93E12C01E0BF
:1000E00028E040E855E260E070E08AEC91E00E9490
:1000F000B7033E983F9A0F91EF9008951F93CF93C7
:10010000DF93CDB7DEB727970FB6F894DEBF0FBEEB
:10011000CDBF26B126FB882780F990E09093470158
:1001200080934601019709F0B8C0109249011092DE
:10013000480117C0479A6BE470E080E090E00E94AD
:10014000BC01479862E370E080E090E00E94BC014F
:1001500080914801909149010196909349018093C3
:100160004801809148019091490108971CF328E2C9
:1001700030E040E050E06CEE7FEF8FEF9FEF0E94A9
:10018000C405605B7F4F70936401609363014AE034
:10019000CE0101960E94A106BE016F5F7F4F8AE4E7
:1001A00091E00E947006CE0101960E94E20528E2CD
:1001B00030E040E050E06CEE7FEF8FEF9FEF0E9469
:1001C000C405605B7F4F70936201609361014AE0F8
:1001D000CE0101960E94A106BE016F5F7F4F81E5AF
:1001E00091E00E947006CE0101960E94E2052AE08D
:1001F00030E040E050E060E070E0CB010E94C405D8
:100200007093600160935F014AE0CE0101960E9405
:10021000A106BE016F5F7F4F88E591E00E947006E6
:10022000CE0101960E94E205109249011092480108
:1002300017E020C0189FB001199F700D1124665B54
:100240007E4F8AEC91E00E94600580914801909178
:100250004901029734F46AE071E08AEC91E00E946F
:100260005E05809148019091490101969093490162
:100270008093480180914801909149018330910514
:10028000CCF26BE071E08AEC91E00E94840568EEAC
:1002900073E080E090E00E94BC0127960FB6F894CE
:1002A000DEBF0FBECDBFDF91CF911F9108956BE0F0
:1002B00071E08AE491E00E9453066BE071E081E511
:1002C00091E00E9453066BE071E088E591E00C94A8
:1002D000530688E591E00E94E20581E591E00E94E5
:1002E000E2058AE491E00C94E20580916601909128
:1002F0006701A0916801B091690130916501232FD8
:100300002D5F2D3720F40196A11DB11D05C0232FAF
:100310002A570296A11DB11D2093650180936601A5
:1003200090936701A0936801B093690180916A017D
:1003300090916B01A0916C01B0916D010196A11D8E
:10034000B11D80936A0190936B01A0936C01B093EF
:100350006D0108950F931F938FB7F8940091660174
:100360001091670120916801309169018FBFB80138
:10037000C9011F910F9108958F929F92AF92BF92E2
:10038000CF92DF92EF92FF926B017C010E94AA0153
:100390004B015C010E94AA01681979098A099B092D
:1003A0006C157D058E059F05A8F3FF90EF90DF90FB
:1003B000CF90BF90AF909F908F9008950E94CE06EF
:1003C0000E946C000E947E00FDCFFC0120893189D3
:1003D000C9010895DC0150962D913C915197232B32
:1003E00049F05496ED91FC915597E80FF91F268935
:1003F00030E002C02FEF3FEFC9010895FC01118AE0
:10040000108A158A148A138A128A0895FC0124819D
:100410003581C9010895FC0124813581C901089500
:10042000FC0180899189892BD1F03FB7F8948089AC
:1004300091890197918B808B84899589DF01A80F21
:10044000B91F56962C910196803291051CF4958B1C
:10045000848B02C0158A148A3FBF30E002C02FEFA0
:100460003FEFC9010895EF92FF921F93CF93DF935F
:100470001F92CDB7DEB77C01D701DA968D919C91A2
:10048000DB974097C8F71FB7F894D696ED91FC918B
:10049000D7970190F081E02DC701C6966983099531
:1004A00069814097C8F4F70182AD93AD019693AF8F
:1004B00082AF84AD95ADE80FF91FE05CFF4F60831C
:1004C0000196D701DD969C938E93DC97409724F09C
:1004D000DD961C921E92DC97F701EA5AFF4F0190BD
:1004E000F081E02D8081806280831FBF81E090E0F9
:1004F0000F90DF91CF911F91FF90EF900895665F6D
:100500007F4F680F791FCB010895665F7F4F680F9B
:10051000791FCB010895665F7F4F680F791FCB016C
:100520000895665F7F4F680F791FCB0108951F9272
:100530000F920FB60F9211242F938F939F93AF9327
:10054000BF93EF93FF938091040290910502892B52
:1005500021F1E0912402F091250280910402909112
:10056000050201979093050280930402809108028E
:1005700090910902DC01A050BE4F1A962C91019671
:10058000803191052CF4909309028093080204C0F5
:100590001092090210920802208380910402909127
:1005A0000502892B31F4E0912002F091210288E9C3
:1005B0008083FF91EF91BF91AF919F918F912F9188
:1005C0000F900FBE0F901F9018951F920F920FB6AD
:1005D0000F9211242F938F939F93AF93BF93EF9319
:1005E000FF938091A8019091A901892B21F1E091BD
:1005F000C801F091C9018091A8019091A9010197CA
:100600009093A9018093A8018091AC019091AD01D4
:10061000DC01AC55BE4F1A962C91019680319105A4
:100620002CF49093AD018093AC0104C01092AD0105
:100630001092AC0120838091A8019091A901892B8F
:1006400031F4E091C401F091C50188E98083FF9104
:10065000EF91BF91AF919F918F912F910F900FBE0E
:100660000F901F901895FC01262F1382128248EEDE
:1006700053E060E070E0448355836683778380E1D4
:1006800091E09183808380E291E09587848780E286
:1006900090E097878687118A108A158A148A138AB0
:1006A000128A8AE291E097AB86AB80E190E091AF4D
:1006B00080AF13AE12AE17AE16AE15AE14AE222337
:1006C00021F0213009F052C028C0DF01A05BBF4FEC
:1006D00085EC90E08D939C93DF01AE5ABF4F84EC84
:1006E00090E08D939C93DF01AC5ABF4F80EC90E07B
:1006F0008D939C93DF01AA5ABF4F81EC90E08D93BC
:100700009C93DF01A85ABF4F82EC90E08D939C939D
:10071000E65AFF4F86EC90E027C0DF01A05BBF4F99
:100720008DEC90E08D939C93DF01AE5ABF4F8CEC23
:1007300090E08D939C93DF01AC5ABF4F88EC90E022
:100740008D939C93DF01AA5ABF4F89EC90E08D9363
:100750009C93DF01A85ABF4F8AEC90E08D939C9345
:10076000E65AFF4F8EEC90E09183808308953F928C
:100770004F925F926F927F928F929F92AF92BF92B1
:10078000CF92DF92EF92FF920F931F93CF93DF935D
:10079000EC014A015B01122F3E2C60E072E18AE716
:1007A00090E0A50194010E94B20969017A0184E0F8
:1007B000C80ED11CE11CF11C83E0F694E794D79499
:1007C000C7948A95D1F760E074E284EF90E0A501C8
:1007D00094010E94B20929013A0194E0490E511C8A
:1007E000611C711C93E076946794579447949A9592
:1007F000D1F7A30192014427552760E874E88EE100
:1008000090E00E94D4095901A818B908B7FE03C0A6
:10081000B194A194B108A70196014427552760E43B
:1008200072E48FE090E00E94D4092819390937FF5B
:1008300003C0319521953109FE01EC5AFF4F01901B
:10084000F081E02DA216B3063CF482E080836201C1
:1008500081E0C81AD10804C0108291E0C91AD108F9
:100860001630C1F018F4153099F405C0173029F08E
:10087000193071F404C080E00EC084E00CC0FE01A9
:10088000EA5AFF4F0190F081E02D808184608083DF
:1008900086E001C082E0023009F4886091E03916F8
:1008A00021F092E0391204C002C0806301C080626E
:1008B000FE01E85AFF4F0190F081E02D8083FE0198
:1008C000E05BFF4F0190F081E02DD082FE01EE5AF7
:1008D000FF4F0190F081E02DC082CA5ADF4FE881BE
:1008E000F98188E98083DF91CF911F910F91FF906B
:1008F000EF90DF90CF90BF90AF909F908F907F90C0
:100900006F905F904F903F9008950F931F93CF93F8
:10091000DF931F92CDB7DEB78C01DC01ED91FC9126
:100920000190F081E02D6983099569818097D0F469
:10093000F8018481958101969583848386819781CE
:10094000E80FF91F628701968032910534F4D801CF
:1009500017969C938E93169703C0F8011782168200
:1009600081E001C080E00F90DF91CF911F910F9146
:1009700008951F920F920FB60F9211242F933F9359
:100980004F935F936F937F938F939F93AF93BF9397
:10099000EF93FF93E091C801F091C90160818AE76C
:1009A00091E00E948504FF91EF91BF91AF919F91DB
:1009B0008F917F916F915F914F913F912F910F9008
:1009C0000FBE0F901F9018951F920F920FB60F92A7
:1009D00011242F933F934F935F936F937F938F9344
:1009E0009F93AF93BF93EF93FF93E0912402F09115
:1009F0002502608186ED91E00E948504FF91EF91D0
:100A0000BF91AF919F918F917F916F915F914F9126
:100A10003F912F910F900FBE0F901F90189560E09F
:100A20008AEC91E00E94330361E08EE691E00C9441
:100A30003303CF92DF92EF92FF920F931F93CF93E6
:100A4000DF936C01EB017A01E60EF71E00E010E087
:100A50000BC06991D601ED91FC910190F081E02DE0
:100A6000C6010995080F191FCE15DF0591F7C801BA
:100A7000DF91CF911F910F91FF90EF90DF90CF907A
:100A800008956115710581F0DB010D900020E9F7F3
:100A9000AD0141505109461B570BDC01ED91FC9112
:100AA0000280F381E02D099480E090E00895DC015C
:100AB000ED91FC910190F081E02D09940C94410599
:100AC000DC01ED91FC91DB0114964D915C91159741
:100AD0006D917C910280F381E02D09940F931F9317
:100AE000CF93DF93EC016DE00E9457058C016AE023
:100AF000CE010E9457059C01200F311FC901DF91D3
:100B0000CF911F910F9108950F931F93CF93DF9370
:100B1000EC010E9441058C01CE010E946E059801F6
:100B2000280F391FC901DF91CF911F910F910895AF
:100B30000F931F93CF93DF9300D000D0CDB7DEB7D4
:100B40009B01AC01611571058105910579F06983FF
:100B50003A834B835C830E94950B29813A814B81B8
:100B60005C810E94D4098B019C0103C000E010E06D
:100B70009801B801C9010F900F900F900F90DF916D
:100B8000CF911F910F910895CF92DF92EF92FF9234
:100B90006B017C01621773078407950764F4CA012F
:100BA000B9016C197D098E099F090E949805C60E2E
:100BB000D71EE81EF91EB601C701FF90EF90DF9027
:100BC000CF900895FC01808191810C94A80ACF9365
:100BD000DF93EC0188819981009711F00E94A80AA7
:100BE000198218821D821C821B821A82DF91CF918A
:100BF00008950F931F93CF93DF93EC018B016F5FE9
:100C00007F4F888199810E94A30B009731F09983CF
:100C100088831B830A8381E001C080E0DF91CF914C
:100C20001F910F910895CF93DF93EC0188819981F3
:100C3000892B31F08A819B818617970708F00CC0B9
:100C4000CE010E94F905882349F08C819D81892B72
:100C500019F4E881F981108281E001C080E0DF9120
:100C6000CF910895EF92FF920F931F93CF93DF934D
:100C7000EC017B018A01BA010E941306811104C0B4
:100C8000CE010E94E70507C01D830C83B701888150
:100C900099810E94780CCE01DF91CF911F910F9125
:100CA000FF90EF900895DC0111961C921E9213960E
:100CB0001C921E92129715961C921E9214971696CD
:100CC0001C926115710559F0DB010D900020E9F7C8
:100CD000AD0141505109461B570B0C943206089543
:100CE000CF93DF93EC01FB018617970761F06081DA
:100CF00071816115710529F0448155810E94320688
:100D000002C00E94E705CE01DF91CF910895CF93F5
:100D1000DF93D82FC92F6115710561F0DB010D90AC
:100D20000020E9F7AD0141505109461B570B0E94C5
:100D3000320602C00E94E7058D2F9C2FDF91CF91D4
:100D400008950F931F93CF93DF93CDB7DEB76297CC
:100D50000FB6F894DEBF0FBECDBF8C01CB01F801FA
:100D6000118210821382128215821482168250E040
:100D7000BE016F5F7F4F0E947F0CBE016F5F7F4F90
:100D8000C8010E94870662960FB6F894DEBF0FBEB8
:100D9000CDBFDF91CF911F910F91089563E08AE657
:100DA00092E00E948D0921E045E751E060E08AE68B
:100DB00092E00E94630964E08AE692E00E94900853
:100DC00061E088E492E00E948D0964E088E492E0AA
:100DD0000E94900861E086E292E00E948D0964E042
:100DE00086E292E00E949008789408951F920F92F4
:100DF0000FB60F9211242F933F934F935F936F93EE
:100E00007F938F939F93AF93BF93EF93FF93E09163
:100E10008402F0918502309709F00995FF91EF91D6
:100E2000BF91AF919F918F917F916F915F914F9102
:100E30003F912F910F900FBE0F901F9018951F920A
:100E40000F920FB60F9211242F933F934F935F93FE
:100E50006F937F938F939F93AF93BF93EF93FF9382
:100E6000E0918602F0918702309709F00995FF9191
:100E7000EF91BF91AF919F918F917F916F915F9112
:100E80004F913F912F910F900FBE0F901F9018958B
:100E90001F920F920FB60F9211242F933F934F93EF
:100EA0005F936F937F938F939F93AF93BF93EF93D2
:100EB000FF93E0918202F0918302309709F0099547
:100EC000FF91EF91BF91AF919F918F917F916F9122
:100ED0005F914F913F912F910F900FBE0F901F90F8
:100EE00018951F920F920FB60F9211242F933F93D4
:100EF0004F935F936F937F938F939F93AF93BF9322
:100F0000EF93FF93E0914002F0914102309709F096
:100F10000995FF91EF91BF91AF919F918F917F9133
:100F20006F915F914F913F912F910F900FBE0F9056
:100F30001F9018951F920F920FB60F9211242F93A6
:100F40003F934F935F936F937F938F939F93AF9351
:100F5000BF93EF93FF93E0914202F09143023097E9
:100F600009F00995FF91EF91BF91AF919F918F91FA
:100F70007F916F915F914F913F912F910F900FBE95
:100F80000F901F9018951F920F920FB60F92112479
:100F90002F933F934F935F936F937F938F939F9381
:100FA000AF93BF93EF93FF93E0913E02F0913F0226
:100FB000309709F00995FF91EF91BF91AF919F9103
:100FC0008F917F916F915F914F913F912F910F90F2
:100FD0000FBE0F901F9018951F920F920FB60F9291
:100FE00011242F933F934F935F936F937F938F932E
:100FF0009F93AF93BF93EF93FF93E0916202F091C1
:101000006302309709F00995FF91EF91BF91AF917D
:101010009F918F917F916F915F914F913F912F9110
:101020000F900FBE0F901F9018951F920F920FB642
:101030000F9211242F933F934F935F936F937F935E
:101040008F939F93AF93BF93EF93FF93E0916402CD
:10105000F0916502309709F00995FF91EF91BF91EA
:10106000AF919F918F917F916F915F914F913F9140
:101070002F910F900FBE0F901F9018951F920F92F7
:101080000FB60F9211242F933F934F935F936F935B
:101090007F938F939F93AF93BF93EF93FF93E091D1
:1010A0006002F0916102309709F00995FF91EF918C
:1010B000BF91AF919F918F917F916F915F914F9170
:1010C0003F912F910F900FBE0F901F9018951F9278
:1010D0000F920FB60F9211242F933F934F935F936C
:1010E0006F937F938F939F93AF93BF93EF93FF93F0
:1010F000E0916802F0916902309709F00995FF913B
:10110000EF91BF91AF919F918F917F916F915F917F
:101110004F913F912F910F900FBE0F901F901895F8
:10112000DC012C916150223039F4673068F4E62FED
:10113000F0E0E05DFE4F06C0693030F4E62FF0E0ED
:10114000E95CFE4F208101C020E0DC011A96ED91A0
:10115000FC911B978081887F822B80830895CF9399
:10116000DF93EC016883613011F120F0623009F007
:101170006CC048C01B821A8286E490E09D838C83F9
:101180008EE690E09F838E8384E490E09987888741
:1011900085E490E09B878A871D861C8687E490E023
:1011A0009F878E87198A188A88E490E022C08FE68C
:1011B00090E09F838E8385E890E09B838A8384E818
:1011C00090E09D838C8380E890E09987888781E810
:1011D00090E09B878A8789E890E09D878C8788E8E4
:1011E00090E09F878E878BE890E0998B888B8AE8C8
:1011F00090E09B8B8A8B1D8A1C8A1F8A1E8A82E044
:10120000898323C01B821A8282EB90E09D838C83AA
:1012100080E790E09F838E8380EB90E099878887BA
:1012200081EB90E09B878A871D861C8683EB90E08C
:101230009F878E87198A188A84EB90E09B8B8A8B14
:101240001D8A1C8A1F8A1E8A698360E0CE010E9463
:101250009008EA81FB81309709F01082EC81FD81D2
:101260001082198E188E1B8E1A8E1D8E1C8E1F8E4C
:101270001E8E19A218A2DF91CF91089551E041115D
:1012800001C050E06530F0F4E62FF0E0E05CFE4F86
:10129000408147FD17C0DC011696ED91FC91179730
:1012A000808121E030E0042E01C0220F0A94EAF789
:1012B00020952823852F042E01C0880F0A94EAF771
:1012C000282B20830895623099F028F4662341F09A
:1012D0006130C9F409C0633079F06430A1F410C002
:1012E000FC01518F408F0FC0FC01538F428F0BC008
:1012F000FC01558F448F07C0FC01578F468F03C0F8
:10130000FC0151A340A3452B11F440E003C022236C
:1013100019F041E00C943E090895DC011896ED9116
:10132000FC9119973081262F23703C7F232B20833B
:101330001A96ED91FC911B9780816C70660F877EE9
:10134000682B6083089560E08AE692E00E94AF080F
:1013500061E088E492E00E94AF0862E086E292E0F9
:101360000C94AF08A1E21A2EAA1BBB1BFD010DC0F5
:10137000AA1FBB1FEE1FFF1FA217B307E407F50745
:1013800020F0A21BB30BE40BF50B661F771F881F21
:10139000991F1A9469F760957095809590959B01B7
:1013A000AC01BD01CF010895052E97FB16F4009402
:1013B00007D057FD0DD00E94B20907FC09D07EF47A
:1013C00090958095709561957F4F8F4F9F4F0895B1
:1013D00050954095309521953F4F4F4F5F4F089561
:1013E0000E94010AA59F900DB49F900DA49F800DAF
:1013F000911D11240895EE0FFF1F0590F491E02D2B
:101400000994A29FB001B39FC001A39F01D0B29FD6
:10141000700D811D1124911D08950F931F93CF937B
:10142000DF938230910510F482E090E0E0918E022B
:10143000F0918F0220E030E0C0E0D0E023C0408196
:10144000518148175907A8F04817590761F482815C
:101450009381209719F09B838A832EC090938F02EB
:1014600080938E0229C02115310529F042175307B8
:1014700010F0A90102C0BE01DF0102811381EF015A
:101480009A01F8013097D9F62115310509F1281B89
:10149000390B2430310590F412968D919C9113975D
:1014A0006115710521F0FB019383828304C0909341
:1014B0008F0280938E02FD01329644C0FD01E20F3F
:1014C000F31F81939193225031092D933C933AC09D
:1014D00020918C0230918D02232B41F42091020146
:1014E0003091030130938D0220938C0220910001F2
:1014F000309101012115310541F42DB73EB74091DE
:10150000040150910501241B350BE0918C02F091F0
:101510008D02E217F307A0F42E1B3F0B28173907A3
:1015200078F0AC014E5F5F4F2417350748F04E0F3F
:101530005F1F50938D0240938C028193919302C060
:10154000E0E0F0E0CF01DF91CF911F910F9108957E
:10155000EF92FF920F931F93CF93DF93009709F4BD
:101560008FC0DC01129713961C921E921297E09086
:101570008E02F0908F02E114F10489F42D913C91D8
:101580001197280F391F80918C0290918D0282173C
:10159000930789F5B0938D02A0938C0271C0E70187
:1015A00020E030E001C0EA01CA17DB0738F44A81C5
:1015B0005B819E0141155105B1F722C0BC0162500B
:1015C0007109FB01D383C28300811181AC01400FFB
:1015D000511F4C175D0761F448815981400F511F1D
:1015E0004E5F5F4F518340834A815B8153834283C7
:1015F0002115310529F4B0938F02A0938E0240C0CB
:10160000F901B383A283E90169917991C60FD71FCC
:10161000AC17BD0779F4DC015E914E91460F571F60
:101620004E5F5F4F5183408312968D919C9113972B
:1016300093838283A0E0B0E002C0D7017C01F70170
:10164000828193810097C9F7C70102962081318179
:10165000820F931F20918C0230918D022817390739
:1016600079F4109729F410928F0210928E0204C020
:1016700013961C921E921297F0928D02E0928C02A9
:10168000CDB7DEB7E6E00C94F40C8F929F92AF9248
:10169000BF92CF92DF92EF92FF92CF93DF93EC0154
:1016A000688179818A819B81611571058105910528
:1016B00021F464E279ED8BE597E02DE133EF41E031
:1016C00050E00E94D40949015A019B01AC01A7EAEC
:1016D000B1E40E94F0096B017C01ACEEB4EFA5010E
:1016E00094010E94B30CC60ED71EE81EF91EF7FE29
:1016F00006C081E0C81AD108E10880E8F80AC8826B
:10170000D982EA82FB82E894F7F8B601C701DF913B
:10171000CF91FF90EF90DF90CF90BF90AF909F90D0
:101720008F9008950E94450B089586E091E00E94F5
:10173000450B08956093060170930701809308019B
:10174000909309010895A0E0B0E0E9EAFBE00C9471
:10175000D20CEC01009729F4CB010E940D0AEC0198
:10176000B8C0DC01A60FB71FFC013297AE17BF0748
:1017700018F4C0E0D0E0ADC0008111810617170752
:10178000B0F00530110508F4A4C0C801049786170D
:10179000970708F49EC002501109061B170B0D9302
:1017A0001D9371836083CD010E94A80A92C07B01C2
:1017B000E01AF10A5C01A00EB11EE0918E02F091D8
:1017C0008F02812C912C80E090E04CC0EA15FB0543
:1017D000F1F5408151816A0122E0C20ED11CCE1484
:1017E000DF04A8F19A012E193F097901690132E05D
:1017F000C30ED11C2EEFA22EBB24BA94AC0EBD1E7C
:1018000025E0C216D10478F04281538113965C938F
:101810004E9312971196FC92EE92F50171836083BC
:101820003A2F2B2F09C00E5F1F4F040F151FD50134
:101830000D931C9332812381009721F0FC013283A8
:10184000238347C030938E0220938F0242C0808151
:1018500091818816990608F44C0152814381CF0189
:10186000E52FF42F309709F0B1CF80918C02909141
:101870008D028A159B05F1F486169706D8F480919F
:10188000000190910101009741F48DB79EB720911E
:10189000040130910501821B930BA817B90708F0CA
:1018A00068CFB0938D02A0938C02FE0132977183B2
:1018B00060830FC0CB010E940D0A7C01009709F4E0
:1018C00058CFA801BE010E946F0CCE010E94A80A49
:1018D000E701CE01CDB7DEB7ECE00C94EE0CFB01D6
:1018E000DC0102C001900D9241505040D8F708959C
:1018F000FB01DC0101900D920020E1F70895FB014E
:101900009F01E8944230C4F04532B4F44A3029F4DF
:1019100097FB1EF4909581959F4F642F77270E9427
:10192000B80C805D8A330CF0895D8193CB01009700
:10193000A1F716F45DE251931082C9010C94A00C3A
:10194000DC01FC01672F71917723E1F7329704C026
:101950007C916D9370836291AE17BF07C8F30895B1
:10196000B7FF0C94F0090E94F009821B930B0895B5
:10197000AA1BBB1B51E107C0AA1FBB1FA617B707B5
:1019800010F0A61BB70B881F991F5A95A9F78095D1
:101990009095BC01CD0108952F923F924F925F9296
:1019A0006F927F928F929F92AF92BF92CF92DF926F
:1019B000EF92FF920F931F93CF93DF93CDB7DEB7D4
:1019C000CA1BDB0B0FB6F894DEBF0FBECDBF099468
:1019D0002A88398848885F846E847D848C849B84BF
:1019E000AA84B984C884DF80EE80FD800C811B81CD
:1019F000AA81B981CE0FD11D0FB6F894DEBF0FBEFC
:101A0000CDBFED01089510E0C2E8D0E004C0FE01B2
:101A10000E94FD092296C438D107C9F7F894FFCF78
:101A200000009002200001000000090000000000FA
:101A300033021905E501EA011002FE010000000071
:101A40000B028B0291020000000006027F02850259
:101A5000010203040506070102000300040506074E
:061A600000010203050075
:00000001FF
